{
  "_format": "hh-sol-artifact-1",
  "contractName": "CardMarketplace",
  "sourceName": "src/CardMarketplace.sol",
  "abi": [
    {
      "inputs": [
        {
          "internalType": "address",
          "name": "_nftContract",
          "type": "address"
        }
      ],
      "stateMutability": "nonpayable",
      "type": "constructor"
    },
    {
      "anonymous": false,
      "inputs": [
        {
          "indexed": true,
          "internalType": "string",
          "name": "cardId",
          "type": "string"
        },
        {
          "indexed": false,
          "internalType": "uint8",
          "name": "tier",
          "type": "uint8"
        },
        {
          "indexed": false,
          "internalType": "string",
          "name": "name",
          "type": "string"
        },
        {
          "indexed": false,
          "internalType": "uint256",
          "name": "price",
          "type": "uint256"
        },
        {
          "indexed": false,
          "internalType": "uint256",
          "name": "maxSupply",
          "type": "uint256"
        }
      ],
      "name": "CardAdded",
      "type": "event"
    },
    {
      "anonymous": false,
      "inputs": [
        {
          "indexed": true,
          "internalType": "uint256",
          "name": "listingId",
          "type": "uint256"
        },
        {
          "indexed": true,
          "internalType": "address",
          "name": "seller",
          "type": "address"
        }
      ],
      "name": "CardDelisted",
      "type": "event"
    },
    {
      "anonymous": false,
      "inputs": [
        {
          "indexed": true,
          "internalType": "uint256",
          "name": "listingId",
          "type": "uint256"
        },
        {
          "indexed": true,
          "internalType": "address",
          "name": "seller",
          "type": "address"
        },
        {
          "indexed": true,
          "internalType": "string",
          "name": "cardId",
          "type": "string"
        },
        {
          "indexed": false,
          "internalType": "uint256",
          "name": "price",
          "type": "uint256"
        }
      ],
      "name": "CardListed",
      "type": "event"
    },
    {
      "anonymous": false,
      "inputs": [
        {
          "indexed": true,
          "internalType": "address",
          "name": "buyer",
          "type": "address"
        },
        {
          "indexed": true,
          "internalType": "string",
          "name": "cardId",
          "type": "string"
        },
        {
          "indexed": false,
          "internalType": "uint256",
          "name": "tokenId",
          "type": "uint256"
        },
        {
          "indexed": false,
          "internalType": "uint256",
          "name": "price",
          "type": "uint256"
        }
      ],
      "name": "CardPurchased",
      "type": "event"
    },
    {
      "anonymous": false,
      "inputs": [
        {
          "indexed": true,
          "internalType": "uint256",
          "name": "listingId",
          "type": "uint256"
        },
        {
          "indexed": true,
          "internalType": "address",
          "name": "seller",
          "type": "address"
        },
        {
          "indexed": true,
          "internalType": "address",
          "name": "buyer",
          "type": "address"
        },
        {
          "indexed": false,
          "internalType": "string",
          "name": "cardId",
          "type": "string"
        },
        {
          "indexed": false,
          "internalType": "uint256",
          "name": "price",
          "type": "uint256"
        },
        {
          "indexed": false,
          "internalType": "uint256",
          "name": "platformFee",
          "type": "uint256"
        }
      ],
      "name": "CardSold",
      "type": "event"
    },
    {
      "anonymous": false,
      "inputs": [
        {
          "indexed": true,
          "internalType": "address",
          "name": "owner",
          "type": "address"
        },
        {
          "indexed": false,
          "internalType": "uint256",
          "name": "amount",
          "type": "uint256"
        }
      ],
      "name": "FundsWithdrawn",
      "type": "event"
    },
    {
      "anonymous": false,
      "inputs": [
        {
          "indexed": true,
          "internalType": "address",
          "name": "previousOwner",
          "type": "address"
        },
        {
          "indexed": true,
          "internalType": "address",
          "name": "newOwner",
          "type": "address"
        }
      ],
      "name": "OwnershipTransferred",
      "type": "event"
    },
    {
      "anonymous": false,
      "inputs": [
        {
          "indexed": false,
          "internalType": "address",
          "name": "account",
          "type": "address"
        }
      ],
      "name": "Paused",
      "type": "event"
    },
    {
      "anonymous": false,
      "inputs": [
        {
          "indexed": false,
          "internalType": "address",
          "name": "account",
          "type": "address"
        }
      ],
      "name": "Unpaused",
      "type": "event"
    },
    {
      "stateMutability": "payable",
      "type": "fallback"
    },
    {
      "inputs": [],
      "name": "BPS_DENOMINATOR",
      "outputs": [
        {
          "internalType": "uint256",
          "name": "",
          "type": "uint256"
        }
      ],
      "stateMutability": "view",
      "type": "function"
    },
    {
      "inputs": [],
      "name": "PLATFORM_FEE_BPS",
      "outputs": [
        {
          "internalType": "uint256",
          "name": "",
          "type": "uint256"
        }
      ],
      "stateMutability": "view",
      "type": "function"
    },
    {
      "inputs": [
        {
          "internalType": "string",
          "name": "_id",
          "type": "string"
        },
        {
          "internalType": "uint8",
          "name": "_tier",
          "type": "uint8"
        },
        {
          "internalType": "string",
          "name": "_name",
          "type": "string"
        },
        {
          "internalType": "string",
          "name": "_anime",
          "type": "string"
        },
        {
          "internalType": "string",
          "name": "_power",
          "type": "string"
        },
        {
          "internalType": "string",
          "name": "_quote",
          "type": "string"
        },
        {
          "internalType": "string",
          "name": "_imageURI",
          "type": "string"
        },
        {
          "internalType": "uint256",
          "name": "_price",
          "type": "uint256"
        },
        {
          "internalType": "uint256",
          "name": "_maxSupply",
          "type": "uint256"
        }
      ],
      "name": "addCard",
      "outputs": [],
      "stateMutability": "nonpayable",
      "type": "function"
    },
    {
      "inputs": [
        {
          "internalType": "string",
          "name": "_cardId",
          "type": "string"
        }
      ],
      "name": "buyCard",
      "outputs": [],
      "stateMutability": "payable",
      "type": "function"
    },
    {
      "inputs": [
        {
          "internalType": "uint256",
          "name": "_listingId",
          "type": "uint256"
        }
      ],
      "name": "buyFromMarketplace",
      "outputs": [],
      "stateMutability": "payable",
      "type": "function"
    },
    {
      "inputs": [
        {
          "internalType": "uint256",
          "name": "",
          "type": "uint256"
        }
      ],
      "name": "cardIds",
      "outputs": [
        {
          "internalType": "string",
          "name": "",
          "type": "string"
        }
      ],
      "stateMutability": "view",
      "type": "function"
    },
    {
      "inputs": [
        {
          "internalType": "string",
          "name": "",
          "type": "string"
        }
      ],
      "name": "cards",
      "outputs": [
        {
          "internalType": "string",
          "name": "id",
          "type": "string"
        },
        {
          "internalType": "uint8",
          "name": "tier",
          "type": "uint8"
        },
        {
          "internalType": "string",
          "name": "name",
          "type": "string"
        },
        {
          "internalType": "string",
          "name": "anime",
          "type": "string"
        },
        {
          "internalType": "string",
          "name": "power",
          "type": "string"
        },
        {
          "internalType": "string",
          "name": "quote",
          "type": "string"
        },
        {
          "internalType": "string",
          "name": "imageURI",
          "type": "string"
        },
        {
          "internalType": "uint256",
          "name": "price",
          "type": "uint256"
        },
        {
          "internalType": "uint256",
          "name": "maxSupply",
          "type": "uint256"
        },
        {
          "internalType": "uint256",
          "name": "currentSupply",
          "type": "uint256"
        },
        {
          "internalType": "bool",
          "name": "active",
          "type": "bool"
        }
      ],
      "stateMutability": "view",
      "type": "function"
    },
    {
      "inputs": [
        {
          "internalType": "uint256",
          "name": "_listingId",
          "type": "uint256"
        }
      ],
      "name": "delistCard",
      "outputs": [],
      "stateMutability": "nonpayable",
      "type": "function"
    },
    {
      "inputs": [],
      "name": "getActiveListings",
      "outputs": [
        {
          "components": [
            {
              "internalType": "uint256",
              "name": "listingId",
              "type": "uint256"
            },
            {
              "internalType": "string",
              "name": "cardId",
              "type": "string"
            },
            {
              "internalType": "uint256",
              "name": "tokenId",
              "type": "uint256"
            },
            {
              "internalType": "address",
              "name": "seller",
              "type": "address"
            },
            {
              "internalType": "uint256",
              "name": "price",
              "type": "uint256"
            },
            {
              "internalType": "uint256",
              "name": "listedAt",
              "type": "uint256"
            },
            {
              "internalType": "bool",
              "name": "active",
              "type": "bool"
            }
          ],
          "internalType": "struct CardMarketplace.Listing[]",
          "name": "",
          "type": "tuple[]"
        }
      ],
      "stateMutability": "view",
      "type": "function"
    },
    {
      "inputs": [],
      "name": "getAllCards",
      "outputs": [
        {
          "components": [
            {
              "internalType": "string",
              "name": "id",
              "type": "string"
            },
            {
              "internalType": "uint8",
              "name": "tier",
              "type": "uint8"
            },
            {
              "internalType": "string",
              "name": "name",
              "type": "string"
            },
            {
              "internalType": "string",
              "name": "anime",
              "type": "string"
            },
            {
              "internalType": "string",
              "name": "power",
              "type": "string"
            },
            {
              "internalType": "string",
              "name": "quote",
              "type": "string"
            },
            {
              "internalType": "string",
              "name": "imageURI",
              "type": "string"
            },
            {
              "internalType": "uint256",
              "name": "price",
              "type": "uint256"
            },
            {
              "internalType": "uint256",
              "name": "maxSupply",
              "type": "uint256"
            },
            {
              "internalType": "uint256",
              "name": "currentSupply",
              "type": "uint256"
            },
            {
              "internalType": "bool",
              "name": "active",
              "type": "bool"
            }
          ],
          "internalType": "struct CardMarketplace.Card[]",
          "name": "",
          "type": "tuple[]"
        }
      ],
      "stateMutability": "view",
      "type": "function"
    },
    {
      "inputs": [
        {
          "internalType": "uint256",
          "name": "_tokenId",
          "type": "uint256"
        }
      ],
      "name": "getCardIdFromToken",
      "outputs": [
        {
          "internalType": "string",
          "name": "",
          "type": "string"
        }
      ],
      "stateMutability": "pure",
      "type": "function"
    },
    {
      "inputs": [
        {
          "internalType": "address",
          "name": "_user",
          "type": "address"
        }
      ],
      "name": "getUserListings",
      "outputs": [
        {
          "components": [
            {
              "internalType": "uint256",
              "name": "listingId",
              "type": "uint256"
            },
            {
              "internalType": "string",
              "name": "cardId",
              "type": "string"
            },
            {
              "internalType": "uint256",
              "name": "tokenId",
              "type": "uint256"
            },
            {
              "internalType": "address",
              "name": "seller",
              "type": "address"
            },
            {
              "internalType": "uint256",
              "name": "price",
              "type": "uint256"
            },
            {
              "internalType": "uint256",
              "name": "listedAt",
              "type": "uint256"
            },
            {
              "internalType": "bool",
              "name": "active",
              "type": "bool"
            }
          ],
          "internalType": "struct CardMarketplace.Listing[]",
          "name": "",
          "type": "tuple[]"
        }
      ],
      "stateMutability": "view",
      "type": "function"
    },
    {
      "inputs": [
        {
          "internalType": "address",
          "name": "_user",
          "type": "address"
        }
      ],
      "name": "getUserTokens",
      "outputs": [
        {
          "internalType": "uint256[]",
          "name": "",
          "type": "uint256[]"
        }
      ],
      "stateMutability": "view",
      "type": "function"
    },
    {
      "inputs": [
        {
          "internalType": "uint256",
          "name": "_tokenId",
          "type": "uint256"
        },
        {
          "internalType": "uint256",
          "name": "_price",
          "type": "uint256"
        }
      ],
      "name": "listCard",
      "outputs": [],
      "stateMutability": "nonpayable",
      "type": "function"
    },
    {
      "inputs": [
        {
          "internalType": "uint256",
          "name": "",
          "type": "uint256"
        }
      ],
      "name": "listings",
      "outputs": [
        {
          "internalType": "uint256",
          "name": "listingId",
          "type": "uint256"
        },
        {
          "internalType": "string",
          "name": "cardId",
          "type": "string"
        },
        {
          "internalType": "uint256",
          "name": "tokenId",
          "type": "uint256"
        },
        {
          "internalType": "address",
          "name": "seller",
          "type": "address"
        },
        {
          "internalType": "uint256",
          "name": "price",
          "type": "uint256"
        },
        {
          "internalType": "uint256",
          "name": "listedAt",
          "type": "uint256"
        },
        {
          "internalType": "bool",
          "name": "active",
          "type": "bool"
        }
      ],
      "stateMutability": "view",
      "type": "function"
    },
    {
      "inputs": [],
      "name": "nextListingId",
      "outputs": [
        {
          "internalType": "uint256",
          "name": "",
          "type": "uint256"
        }
      ],
      "stateMutability": "view",
      "type": "function"
    },
    {
      "inputs": [],
      "name": "nftContract",
      "outputs": [
        {
          "internalType": "contract IERC721",
          "name": "",
          "type": "address"
        }
      ],
      "stateMutability": "view",
      "type": "function"
    },
    {
      "inputs": [],
      "name": "owner",
      "outputs": [
        {
          "internalType": "address",
          "name": "",
          "type": "address"
        }
      ],
      "stateMutability": "view",
      "type": "function"
    },
    {
      "inputs": [],
      "name": "pause",
      "outputs": [],
      "stateMutability": "nonpayable",
      "type": "function"
    },
    {
      "inputs": [],
      "name": "paused",
      "outputs": [
        {
          "internalType": "bool",
          "name": "",
          "type": "bool"
        }
      ],
      "stateMutability": "view",
      "type": "function"
    },
    {
      "inputs": [],
      "name": "renounceOwnership",
      "outputs": [],
      "stateMutability": "nonpayable",
      "type": "function"
    },
    {
      "inputs": [
        {
          "internalType": "address",
          "name": "_nftContract",
          "type": "address"
        }
      ],
      "name": "setNFTContract",
      "outputs": [],
      "stateMutability": "nonpayable",
      "type": "function"
    },
    {
      "inputs": [
        {
          "internalType": "uint256",
          "name": "",
          "type": "uint256"
        }
      ],
      "name": "tokenExists",
      "outputs": [
        {
          "internalType": "bool",
          "name": "",
          "type": "bool"
        }
      ],
      "stateMutability": "view",
      "type": "function"
    },
    {
      "inputs": [
        {
          "internalType": "uint256",
          "name": "",
          "type": "uint256"
        }
      ],
      "name": "tokenListing",
      "outputs": [
        {
          "internalType": "uint256",
          "name": "",
          "type": "uint256"
        }
      ],
      "stateMutability": "view",
      "type": "function"
    },
    {
      "inputs": [],
      "name": "totalVolume",
      "outputs": [
        {
          "internalType": "uint256",
          "name": "",
          "type": "uint256"
        }
      ],
      "stateMutability": "view",
      "type": "function"
    },
    {
      "inputs": [
        {
          "internalType": "address",
          "name": "newOwner",
          "type": "address"
        }
      ],
      "name": "transferOwnership",
      "outputs": [],
      "stateMutability": "nonpayable",
      "type": "function"
    },
    {
      "inputs": [],
      "name": "unpause",
      "outputs": [],
      "stateMutability": "nonpayable",
      "type": "function"
    },
    {
      "inputs": [
        {
          "internalType": "string",
          "name": "_cardId",
          "type": "string"
        },
        {
          "internalType": "uint256",
          "name": "_newPrice",
          "type": "uint256"
        }
      ],
      "name": "updateCardPrice",
      "outputs": [],
      "stateMutability": "nonpayable",
      "type": "function"
    },
    {
      "inputs": [
        {
          "internalType": "address",
          "name": "",
          "type": "address"
        },
        {
          "internalType": "uint256",
          "name": "",
          "type": "uint256"
        }
      ],
      "name": "userListings",
      "outputs": [
        {
          "internalType": "uint256",
          "name": "",
          "type": "uint256"
        }
      ],
      "stateMutability": "view",
      "type": "function"
    },
    {
      "inputs": [
        {
          "internalType": "address",
          "name": "",
          "type": "address"
        }
      ],
      "name": "userSalesVolume",
      "outputs": [
        {
          "internalType": "uint256",
          "name": "",
          "type": "uint256"
        }
      ],
      "stateMutability": "view",
      "type": "function"
    },
    {
      "inputs": [
        {
          "internalType": "address",
          "name": "",
          "type": "address"
        },
        {
          "internalType": "uint256",
          "name": "",
          "type": "uint256"
        }
      ],
      "name": "userTokens",
      "outputs": [
        {
          "internalType": "uint256",
          "name": "",
          "type": "uint256"
        }
      ],
      "stateMutability": "view",
      "type": "function"
    },
    {
      "inputs": [],
      "name": "withdraw",
      "outputs": [],
      "stateMutability": "nonpayable",
      "type": "function"
    },
    {
      "stateMutability": "payable",
      "type": "receive"
    }
  ],
  "bytecode": "0x60806040523480156200001157600080fd5b50604051620042db380380620042db833981016040819052620000349162000c62565b60016000556200004433620000dd565b6001805460ff60a01b191690556001600160a01b038116620000ac5760405162461bcd60e51b815260206004820152601460248201527f496e76616c6964204e465420636f6e7472616374000000000000000000000000604482015260640160405180910390fd5b600280546001600160a01b0319166001600160a01b0383161790556001600655620000d66200012f565b5062000e99565b600180546001600160a01b038381166001600160a01b0319831681179093556040519116919082907f8be0079c531659141344cd1fd0a4f28419497f9722a3daafe3b4186f6b6457e090600090a35050565b6200021b6040518060400160405280600381526020016243303160e81b8152506000604051806040016040528060068152602001654b696c6c756160d01b8152506040518060400160405280600f81526020016e243ab73a32b9103c10243ab73a32b960891b8152506040518060400160405280600881526020016711dbd91cdc19595960c21b8152506040518060400160405280601881526020017f492077616e7420746f20626520796f757220667269656e640000000000000000815250604051806080016040528060478152602001620041d560479139678ac7230489e800006103e862000a74565b620003006040518060400160405280600381526020016221981960e91b8152506000604051806040016040528060078152602001665a656e6974737560c81b8152506040518060400160405280600c81526020016b2232b6b7b71029b630bcb2b960a11b815250604051806040016040528060118152602001705468756e64657220427265617468696e6760781b8152506040518060400160405280600f81526020016e49206d75737420626520627261766560881b8152506040518060800160405280604781526020016200429460479139678ac7230489e800006103e862000a74565b620003ee6040518060400160405280600381526020016243303360e81b81525060006040518060400160405280600681526020016542616b75676f60d01b8152506040518060400160405280601081526020016f4d79204865726f2041636164656d696160801b8152506040518060400160405280600981526020016822bc383637b9b4b7b760b91b8152506040518060400160405280601881526020017f492077696c6c207375727061737320416c6c204d6967687400000000000000008152506040518060800160405280604781526020016200418e6047913967a688906bd8b0000061032062000a74565b620004ee6040518060400160405280600381526020016210cc0d60ea1b8152506000604051806040016040528060068152602001654e6f6261726160d01b8152506040518060400160405280600e81526020016d253ab53aba39ba9025b0b4b9b2b760911b8152506040518060400160405280601481526020017f537472617720446f6c6c20546563686e697175650000000000000000000000008152506040518060400160405280601b81526020017f4920616d206865726520746f207361766520796f7572206c69666500000000008152506040518060800160405280604781526020016200421c6047913967a688906bd8b0000061032062000a74565b620005dd6040518060400160405280600381526020016252303160e81b81525060016040518060400160405280600481526020016344656b7560e01b8152506040518060400160405280601081526020016f4d79204865726f2041636164656d696160801b8152506040518060400160405280600b81526020016a13db9948119bdc88105b1b60aa1b8152506040518060400160405280601481526020017f492077696c6c20736176652065766572796f6e65000000000000000000000000815250604051806080016040528060478152602001620041d56047913968015af1d78b58c400006101f462000a74565b620006af6040518060400160405280600381526020016229181960e91b81525060016040518060400160405280600681526020016549746163686960d01b815250604051806040016040528060068152602001654e617275746f60d01b8152506040518060400160405280601281526020017126b0b733b2b5bcb79029b430b934b733b0b760711b81525060405180606001604052806031815260200162004263603191396040518060800160405280604781526020016200421c604791396801a055690d9db8000061019062000a74565b6200079f6040518060400160405280600381526020016252303360e81b81525060016040518060400160405280600781526020016654616e6a69726f60c81b8152506040518060400160405280600c81526020016b2232b6b7b71029b630bcb2b960a11b8152506040518060400160405280600d81526020016c53756e20427265617468696e6760981b8152506040518060400160405280601581526020017f492077696c6c2073617665206d792073697374657200000000000000000000008152506040518060800160405280604481526020016200414a6044913968018493fba64ef000006101c262000a74565b620008936040518060400160405280600381526020016245303160e81b8152506002604051806040016040528060048152602001634c65766960e01b8152506040518060400160405280600f81526020016e20ba3a30b1b59037b7102a34ba30b760891b8152506040518060400160405280601281526020017141636b65726d616e20426c6f6f646c696e6560701b8152506040518060400160405280601e81526020017f47697665207570206f6e20796f757220647265616d7320616e642064696500008152506040518060800160405280604781526020016200418e604791396802b5e3af16b188000060c862000a74565b620009866040518060400160405280600381526020016222981960e91b815250600260405180604001604052806004815260200163476f6a6f60e01b8152506040518060400160405280600e81526020016d253ab53aba39ba9025b0b4b9b2b760911b8152506040518060400160405280601481526020017f4c696d69746c6573732026205369782045796573000000000000000000000000815250604051806040016040528060128152602001711248185b481d1a19481cdd1c9bdb99d95cdd60721b8152506040518060800160405280604781526020016200421c60479139680340aad21b3b700000609662000a74565b62000a72604051806040016040528060038152602001624c303160e81b815250600360405180604001604052806004815260200163476f6b7560e01b8152506040518060400160405280600b81526020016a111c9859dbdb8810985b1b60aa1b8152506040518060400160405280600e81526020016d155b1d1c9848125b9cdd1a5b98dd60921b8152506040518060400160405280601d81526020017f4920616d2074686520686f7065206f662074686520756e6976657273650000008152506040518060800160405280604781526020016200421c6047913968056bc75e2d63100000603262000a74565b565b6040518061016001604052808a81526020018960ff168152602001888152602001878152602001868152602001858152602001848152602001838152602001828152602001600081526020016001151581525060038a60405162000ad9919062000cba565b9081526040519081900360200190208151819062000af8908262000d7f565b50602082015160018201805460ff191660ff9092169190911790556040820151600282019062000b29908262000d7f565b506060820151600382019062000b40908262000d7f565b506080820151600482019062000b57908262000d7f565b5060a0820151600582019062000b6e908262000d7f565b5060c0820151600682019062000b85908262000d7f565b5060e082015160078201556101008201516008820155610120820151600982015561014090910151600a909101805460ff1916911515919091179055600480546001810182556000919091527f8a35acfbc15ff81a39ae7d344fd709f28e8600b4aa8c65c6b64bfe7fe36bd19b0162000bff8a8262000d7f565b508860405162000c10919062000cba565b60405180910390207f9c82e607f1271deae1c510ec6e451d2f1fbc8829c98a7b4e5ee08c38656245408989858560405162000c4f949392919062000e4b565b60405180910390a2505050505050505050565b60006020828403121562000c7557600080fd5b81516001600160a01b038116811462000c8d57600080fd5b9392505050565b60005b8381101562000cb157818101518382015260200162000c97565b50506000910152565b6000825162000cce81846020870162000c94565b9190910192915050565b634e487b7160e01b600052604160045260246000fd5b600181811c9082168062000d0357607f821691505b60208210810362000d2457634e487b7160e01b600052602260045260246000fd5b50919050565b601f82111562000d7a576000816000526020600020601f850160051c8101602086101562000d555750805b601f850160051c820191505b8181101562000d765782815560010162000d61565b5050505b505050565b81516001600160401b0381111562000d9b5762000d9b62000cd8565b62000db38162000dac845462000cee565b8462000d2a565b602080601f83116001811462000deb576000841562000dd25750858301515b600019600386901b1c1916600185901b17855562000d76565b600085815260208120601f198616915b8281101562000e1c5788860151825594840194600190910190840162000dfb565b508582101562000e3b5787850151600019600388901b60f8161c191681555b5050505050600190811b01905550565b60ff85168152608060208201526000845180608084015262000e758160a085016020890162000c94565b604083019490945250606081019190915260a0601f909201601f1916010192915050565b6132a18062000ea96000396000f3fe6080604052600436106101ce5760003560e01c806387c35bc0116100f6578063d33d16571161008f578063eb18a9d811610061578063eb18a9d8146105a7578063ed36c52f146105c7578063f2fde38b146105e7578063f9f411d81461060757005b8063d33d165714610511578063d56d229d1461053e578063de74e57b1461055e578063e1a452181461059157005b8063aaccf1ec116100c8578063aaccf1ec146104a6578063c712ecef146104bc578063c9733a82146104cf578063cea13516146104ef57005b806387c35bc0146104125780638da5cb5b1461043457806394d0ae6714610466578063a7ccabdf1461048657005b8063519dc8d211610168578063715018a61161013a578063715018a6146103b55780637f2f8f7b146103ca5780638456cb59146103dd57806386cfa7d3146103f257005b8063519dc8d21461033e578063539aa77f1461036b5780635c975abb146103805780635f81a57c1461039f57005b80633ccfd60b116101a15780633ccfd60b146102bd5780633f4ba83a146102d257806340e6c3cd146102e75780634dac95a81461030757005b8062923f9e146101d757806324cbc9cb1461021c5780632d7c12301461026257806335df17b41461028257005b366101d557005b005b3480156101e357600080fd5b506102076101f2366004612827565b600a6020526000908152604090205460ff1681565b60405190151581526020015b60405180910390f35b34801561022857600080fd5b50610255610237366004612827565b5060408051808201909152600381526243303160e81b602082015290565b6040516102139190612890565b34801561026e57600080fd5b506101d561027d366004612827565b610627565b34801561028e57600080fd5b506102af61029d3660046128bf565b600b6020526000908152604090205481565b604051908152602001610213565b3480156102c957600080fd5b506101d5610732565b3480156102de57600080fd5b506101d5610877565b3480156102f357600080fd5b50610255610302366004612827565b610889565b34801561031357600080fd5b5061032761032236600461297f565b610935565b6040516102139b9a999897969594939291906129bc565b34801561034a57600080fd5b5061035e6103593660046128bf565b610ccf565b6040516102139190612a73565b34801561037757600080fd5b506102af60fa81565b34801561038c57600080fd5b50600154600160a01b900460ff16610207565b3480156103ab57600080fd5b506102af600c5481565b3480156103c157600080fd5b506101d5610d3b565b6101d56103d836600461297f565b610d4d565b3480156103e957600080fd5b506101d5610fbe565b3480156103fe57600080fd5b506102af61040d366004612ab7565b610fce565b34801561041e57600080fd5b50610427610fff565b6040516102139190612ae3565b34801561044057600080fd5b506001546001600160a01b03165b6040516001600160a01b039091168152602001610213565b34801561047257600080fd5b506101d5610481366004612b99565b6111fb565b34801561049257600080fd5b506101d56104a13660046128bf565b61129c565b3480156104b257600080fd5b506102af60065481565b6101d56104ca366004612827565b61130e565b3480156104db57600080fd5b506101d56104ea366004612bf4565b611721565b3480156104fb57600080fd5b506105046117b4565b6040516102139190612d0f565b34801561051d57600080fd5b506102af61052c366004612827565b60086020526000908152604090205481565b34801561054a57600080fd5b5060025461044e906001600160a01b031681565b34801561056a57600080fd5b5061057e610579366004612827565b611c96565b6040516102139796959493929190612e44565b34801561059d57600080fd5b506102af61271081565b3480156105b357600080fd5b506104276105c23660046128bf565b611d67565b3480156105d357600080fd5b506101d56105e2366004612e92565b611f2b565b3480156105f357600080fd5b506101d56106023660046128bf565b612212565b34801561061357600080fd5b506102af610622366004612ab7565b612288565b61062f6122a4565b6000818152600560205260409020600681015460ff1661068b5760405162461bcd60e51b81526020600482015260126024820152714c697374696e67206e6f742061637469766560701b60448201526064015b60405180910390fd5b60038101546001600160a01b031633146106d85760405162461bcd60e51b815260206004820152600e60248201526d2737ba103a34329039b2b63632b960911b6044820152606401610682565b60068101805460ff19169055600281015460009081526008602052604080822082905551339184917fa52c8e13019062b8331c9f418e8d98dba8f0f6a0acfde0a5369eb294515b883a9190a35061072f6001600055565b50565b61073a6122fd565b478061077f5760405162461bcd60e51b81526020600482015260146024820152734e6f2066756e647320746f20776974686472617760601b6044820152606401610682565b60006107936001546001600160a01b031690565b6001600160a01b03168260405160006040518083038185875af1925050503d80600081146107dd576040519150601f19603f3d011682016040523d82523d6000602084013e6107e2565b606091505b50509050806108255760405162461bcd60e51b815260206004820152600f60248201526e151c985b9cd9995c8819985a5b1959608a1b6044820152606401610682565b6001546001600160a01b03166001600160a01b03167feaff4b37086828766ad3268786972c0cd24259d4c87a80f9d3963a3c3d999b0d8360405161086b91815260200190565b60405180910390a25050565b61087f6122fd565b610887612357565b565b6004818154811061089957600080fd5b9060005260206000200160009150905080546108b490612eb4565b80601f01602080910402602001604051908101604052809291908181526020018280546108e090612eb4565b801561092d5780601f106109025761010080835404028352916020019161092d565b820191906000526020600020905b81548152906001019060200180831161091057829003601f168201915b505050505081565b805160208183018101805160038252928201919093012091528054819061095b90612eb4565b80601f016020809104026020016040519081016040528092919081815260200182805461098790612eb4565b80156109d45780601f106109a9576101008083540402835291602001916109d4565b820191906000526020600020905b8154815290600101906020018083116109b757829003601f168201915b5050506001840154600285018054949560ff9092169491935091506109f890612eb4565b80601f0160208091040260200160405190810160405280929190818152602001828054610a2490612eb4565b8015610a715780601f10610a4657610100808354040283529160200191610a71565b820191906000526020600020905b815481529060010190602001808311610a5457829003601f168201915b505050505090806003018054610a8690612eb4565b80601f0160208091040260200160405190810160405280929190818152602001828054610ab290612eb4565b8015610aff5780601f10610ad457610100808354040283529160200191610aff565b820191906000526020600020905b815481529060010190602001808311610ae257829003601f168201915b505050505090806004018054610b1490612eb4565b80601f0160208091040260200160405190810160405280929190818152602001828054610b4090612eb4565b8015610b8d5780601f10610b6257610100808354040283529160200191610b8d565b820191906000526020600020905b815481529060010190602001808311610b7057829003601f168201915b505050505090806005018054610ba290612eb4565b80601f0160208091040260200160405190810160405280929190818152602001828054610bce90612eb4565b8015610c1b5780601f10610bf057610100808354040283529160200191610c1b565b820191906000526020600020905b815481529060010190602001808311610bfe57829003601f168201915b505050505090806006018054610c3090612eb4565b80601f0160208091040260200160405190810160405280929190818152602001828054610c5c90612eb4565b8015610ca95780601f10610c7e57610100808354040283529160200191610ca9565b820191906000526020600020905b815481529060010190602001808311610c8c57829003601f168201915b50505050600783015460088401546009850154600a909501549394919390925060ff168b565b6001600160a01b038116600090815260096020908152604091829020805483518184028101840190945280845260609392830182828015610d2f57602002820191906000526020600020905b815481526020019060010190808311610d1b575b50505050509050919050565b610d436122fd565b61088760006123ac565b610d556122a4565b610d5d6123fe565b6000600382604051610d6f9190612ee8565b908152604051908190036020019020600a81015490915060ff16610dca5760405162461bcd60e51b815260206004820152601260248201527143617264206e6f7420617661696c61626c6560701b6044820152606401610682565b8060080154816009015410610e115760405162461bcd60e51b815260206004820152600d60248201526c10d85c99081cdbdb19081bdd5d609a1b6044820152606401610682565b8060070154341015610e5c5760405162461bcd60e51b8152602060048201526014602482015273125b9cdd59999a58da595b9d081c185e5b595b9d60621b6044820152606401610682565b6000610e68338461244b565b6009830180549192506000610e7c83612f1a565b909155505033600090815260096020908152604080832080546001818101835591855283852001859055848452600a90925291829020805460ff1916909117905551610ec9908490612ee8565b60408051918290038220600785015484845260208401529133917f5ad87a1fd618c0235f46f0b0dd6e444cf52bb052431e1fba0c4a7733248f4285910160405180910390a38160070154341115610fb25760078201546000903390610f2e9034612f33565b604051600081818185875af1925050503d8060008114610f6a576040519150601f19603f3d011682016040523d82523d6000602084013e610f6f565b606091505b5050905080610fb05760405162461bcd60e51b815260206004820152600d60248201526c1499599d5b990819985a5b1959609a1b6044820152606401610682565b505b505061072f6001600055565b610fc66122fd565b6108876124a8565b60076020528160005260406000208181548110610fea57600080fd5b90600052602060002001600091509150505481565b6060600060015b6006548110156110405760008181526005602052604090206006015460ff1615611038578161103481612f1a565b9250505b600101611006565b5060008167ffffffffffffffff81111561105c5761105c6128dc565b60405190808252806020026020018201604052801561109557816020015b6110826127df565b81526020019060019003908161107a5790505b509050600060015b6006548110156111f25760008181526005602052604090206006015460ff16156111ea57600560008281526020019081526020016000206040518060e0016040529081600082015481526020016001820180546110f990612eb4565b80601f016020809104026020016040519081016040528092919081815260200182805461112590612eb4565b80156111725780601f1061114757610100808354040283529160200191611172565b820191906000526020600020905b81548152906001019060200180831161115557829003601f168201915b50505091835250506002820154602082015260038201546001600160a01b03166040820152600482015460608201526005820154608082015260069091015460ff16151560a09091015283518490849081106111d0576111d0612f46565b602002602001018190525081806111e690612f1a565b9250505b60010161109d565b50909392505050565b6112036122fd565b60006003836040516112159190612ee8565b908152604051908190036020019020805461122f90612eb4565b9050116112745760405162461bcd60e51b815260206004820152601360248201527210d85c9908191bd95cc81b9bdd08195e1a5cdd606a1b6044820152606401610682565b806003836040516112859190612ee8565b908152604051908190036020019020600701555050565b6112a46122fd565b6001600160a01b0381166112ec5760405162461bcd60e51b815260206004820152600f60248201526e496e76616c6964206164647265737360881b6044820152606401610682565b600280546001600160a01b0319166001600160a01b0392909216919091179055565b6113166122a4565b61131e6123fe565b6000818152600560205260409020600681015460ff166113755760405162461bcd60e51b81526020600482015260126024820152714c697374696e67206e6f742061637469766560701b6044820152606401610682565b6003810154336001600160a01b03909116036113d35760405162461bcd60e51b815260206004820152601b60248201527f43616e6e6f742062757920796f7572206f776e206c697374696e6700000000006044820152606401610682565b806004015434101561141e5760405162461bcd60e51b8152602060048201526014602482015273125b9cdd59999a58da595b9d081c185e5b595b9d60621b6044820152606401610682565b600061271060fa83600401546114349190612f5c565b61143e9190612f73565b905060008183600401546114529190612f33565b60028054600386015491860154604051632142170760e11b81526001600160a01b039384166004820152336024820152604481019190915292935016906342842e0e90606401600060405180830381600087803b1580156114b257600080fd5b505af11580156114c6573d6000803e3d6000fd5b50505050600383015460028401546114e7916001600160a01b0316906124eb565b336000908152600960209081526040808320600287015481546001810183559185529284200191909155600385015490516001600160a01b039091169083908381818185875af1925050503d806000811461155e576040519150601f19603f3d011682016040523d82523d6000602084013e611563565b606091505b50509050806115ac5760405162461bcd60e51b815260206004820152601560248201527414d95b1b195c881c185e5b595b9d0819985a5b1959605a1b6044820152606401610682565b60068401805460ff191690556002840154600090815260086020908152604080832083905560038701546001600160a01b03168352600b909152812080548492906115f8908490612f95565b90915550506004840154600c8054600090611614908490612f95565b90915550506003840154600485015460405133926001600160a01b03169188917f7764d66e73acd9fad9628c8e381b592388ff6a11ea5f40bf93c06776e8da8e50916116679160018b0191908a90612fa8565b60405180910390a48360040154341115611713576004840154600090339061168f9034612f33565b604051600081818185875af1925050503d80600081146116cb576040519150601f19603f3d011682016040523d82523d6000602084013e6116d0565b606091505b50509050806117115760405162461bcd60e51b815260206004820152600d60248201526c1499599d5b990819985a5b1959609a1b6044820152606401610682565b505b5050505061072f6001600055565b6117296122fd565b6003896040516117399190612ee8565b908152604051908190036020019020805461175390612eb4565b1590506117985760405162461bcd60e51b81526020600482015260136024820152724361726420616c72656164792065786973747360681b6044820152606401610682565b6117a98989898989898989896125b5565b505050505050505050565b60045460609060009067ffffffffffffffff8111156117d5576117d56128dc565b60405190808252806020026020018201604052801561186857816020015b61185560405180610160016040528060608152602001600060ff16815260200160608152602001606081526020016060815260200160608152602001606081526020016000815260200160008152602001600081526020016000151581525090565b8152602001906001900390816117f35790505b50905060005b600454811015611c905760036004828154811061188d5761188d612f46565b906000526020600020016040516118a49190613041565b9081526020016040518091039020604051806101600160405290816000820180546118ce90612eb4565b80601f01602080910402602001604051908101604052809291908181526020018280546118fa90612eb4565b80156119475780601f1061191c57610100808354040283529160200191611947565b820191906000526020600020905b81548152906001019060200180831161192a57829003601f168201915b5050509183525050600182015460ff16602082015260028201805460409092019161197190612eb4565b80601f016020809104026020016040519081016040528092919081815260200182805461199d90612eb4565b80156119ea5780601f106119bf576101008083540402835291602001916119ea565b820191906000526020600020905b8154815290600101906020018083116119cd57829003601f168201915b50505050508152602001600382018054611a0390612eb4565b80601f0160208091040260200160405190810160405280929190818152602001828054611a2f90612eb4565b8015611a7c5780601f10611a5157610100808354040283529160200191611a7c565b820191906000526020600020905b815481529060010190602001808311611a5f57829003601f168201915b50505050508152602001600482018054611a9590612eb4565b80601f0160208091040260200160405190810160405280929190818152602001828054611ac190612eb4565b8015611b0e5780601f10611ae357610100808354040283529160200191611b0e565b820191906000526020600020905b815481529060010190602001808311611af157829003601f168201915b50505050508152602001600582018054611b2790612eb4565b80601f0160208091040260200160405190810160405280929190818152602001828054611b5390612eb4565b8015611ba05780601f10611b7557610100808354040283529160200191611ba0565b820191906000526020600020905b815481529060010190602001808311611b8357829003601f168201915b50505050508152602001600682018054611bb990612eb4565b80601f0160208091040260200160405190810160405280929190818152602001828054611be590612eb4565b8015611c325780601f10611c0757610100808354040283529160200191611c32565b820191906000526020600020905b815481529060010190602001808311611c1557829003601f168201915b5050509183525050600782015460208201526008820154604082015260098201546060820152600a9091015460ff1615156080909101528251839083908110611c7d57611c7d612f46565b602090810291909101015260010161186e565b50919050565b60056020526000908152604090208054600182018054919291611cb890612eb4565b80601f0160208091040260200160405190810160405280929190818152602001828054611ce490612eb4565b8015611d315780601f10611d0657610100808354040283529160200191611d31565b820191906000526020600020905b815481529060010190602001808311611d1457829003601f168201915b5050506002840154600385015460048601546005870154600690970154959692956001600160a01b039092169450925060ff1687565b6001600160a01b038116600090815260076020526040812080546060929067ffffffffffffffff811115611d9d57611d9d6128dc565b604051908082528060200260200182016040528015611dd657816020015b611dc36127df565b815260200190600190039081611dbb5790505b50905060005b8254811015611f235760056000848381548110611dfb57611dfb612f46565b906000526020600020015481526020019081526020016000206040518060e001604052908160008201548152602001600182018054611e3990612eb4565b80601f0160208091040260200160405190810160405280929190818152602001828054611e6590612eb4565b8015611eb25780601f10611e8757610100808354040283529160200191611eb2565b820191906000526020600020905b815481529060010190602001808311611e9557829003601f168201915b50505091835250506002820154602082015260038201546001600160a01b03166040820152600482015460608201526005820154608082015260069091015460ff16151560a0909101528251839083908110611f1057611f10612f46565b6020908102919091010152600101611ddc565b509392505050565b611f336122a4565b611f3b6123fe565b6002546040516331a9108f60e11b81526004810184905233916001600160a01b031690636352211e90602401602060405180830381865afa158015611f84573d6000803e3d6000fd5b505050506040513d601f19601f82011682018060405250810190611fa891906130b7565b6001600160a01b031614611ff05760405162461bcd60e51b815260206004820152600f60248201526e2737ba103a37b5b2b71037bbb732b960891b6044820152606401610682565b600081116120405760405162461bcd60e51b815260206004820152601c60248201527f5072696365206d7573742062652067726561746572207468616e2030000000006044820152606401610682565b600082815260086020526040902054156120935760405162461bcd60e51b8152602060048201526014602482015273151bdad95b88185b1c9958591e481b1a5cdd195960621b6044820152606401610682565b60068054600091826120a483612f1a565b91905055905060006120cc60408051808201909152600381526243303160e81b602082015290565b6040805160e0810182528481526020808201848152828401899052336060840152608083018890524260a0840152600160c0840181905260008881526005909352939091208251815590519394509092909182019061212b9082613125565b50604082810151600283015560608301516003830180546001600160a01b0319166001600160a01b039092169190911790556080830151600483015560a0830151600583015560c0909201516006909101805460ff1916911515919091179055600085815260086020908152828220859055338252600781528282208054600181018255908352912001839055516121c4908290612ee8565b60405190819003812084825290339084907f28743434b8668fe6a79116762af60891cd2ac15a086db98f56d3605047d5faeb9060200160405180910390a4505061220e6001600055565b5050565b61221a6122fd565b6001600160a01b03811661227f5760405162461bcd60e51b815260206004820152602660248201527f4f776e61626c653a206e6577206f776e657220697320746865207a65726f206160448201526564647265737360d01b6064820152608401610682565b61072f816123ac565b60096020528160005260406000208181548110610fea57600080fd5b6002600054036122f65760405162461bcd60e51b815260206004820152601f60248201527f5265656e7472616e637947756172643a207265656e7472616e742063616c6c006044820152606401610682565b6002600055565b6001546001600160a01b031633146108875760405162461bcd60e51b815260206004820181905260248201527f4f776e61626c653a2063616c6c6572206973206e6f7420746865206f776e65726044820152606401610682565b61235f61278f565b6001805460ff60a01b191690557f5db9ee0a495bf2e6ff9c91a7834c1ba4fdd244a5e8aa4e537bd38aeae4b073aa335b6040516001600160a01b03909116815260200160405180910390a1565b600180546001600160a01b038381166001600160a01b0319831681179093556040519116919082907f8be0079c531659141344cd1fd0a4f28419497f9722a3daafe3b4186f6b6457e090600090a35050565b600154600160a01b900460ff16156108875760405162461bcd60e51b815260206004820152601060248201526f14185d5cd8589b194e881c185d5cd95960821b6044820152606401610682565b6000808242856003866040516124619190612ee8565b90815260200160405180910390206009015460405160200161248694939291906131e5565b60408051601f1981840301815291905280516020909101209150505b92915050565b6124b06123fe565b6001805460ff60a01b1916600160a01b1790557f62e78cea01bee320cd4e420270b5ea74000d11b0c9f74754ebdbfc544b05a25861238f3390565b6001600160a01b0382166000908152600960205260408120905b81548110156125af578282828154811061252157612521612f46565b9060005260206000200154036125a7578154829061254190600190612f33565b8154811061255157612551612f46565b906000526020600020015482828154811061256e5761256e612f46565b90600052602060002001819055508180548061258c5761258c613226565b600190038181906000526020600020016000905590556125af565b600101612505565b50505050565b6040518061016001604052808a81526020018960ff168152602001888152602001878152602001868152602001858152602001848152602001838152602001828152602001600081526020016001151581525060038a6040516126189190612ee8565b908152604051908190036020019020815181906126359082613125565b50602082015160018201805460ff191660ff909216919091179055604082015160028201906126649082613125565b50606082015160038201906126799082613125565b506080820151600482019061268e9082613125565b5060a082015160058201906126a39082613125565b5060c082015160068201906126b89082613125565b5060e082015160078201556101008201516008820155610120820151600982015561014090910151600a909101805460ff1916911515919091179055600480546001810182556000919091527f8a35acfbc15ff81a39ae7d344fd709f28e8600b4aa8c65c6b64bfe7fe36bd19b016127308a82613125565b508860405161273f9190612ee8565b60405180910390207f9c82e607f1271deae1c510ec6e451d2f1fbc8829c98a7b4e5ee08c38656245408989858560405161277c949392919061323c565b60405180910390a2505050505050505050565b600154600160a01b900460ff166108875760405162461bcd60e51b815260206004820152601460248201527314185d5cd8589b194e881b9bdd081c185d5cd95960621b6044820152606401610682565b6040518060e0016040528060008152602001606081526020016000815260200160006001600160a01b0316815260200160008152602001600081526020016000151581525090565b60006020828403121561283957600080fd5b5035919050565b60005b8381101561285b578181015183820152602001612843565b50506000910152565b6000815180845261287c816020860160208601612840565b601f01601f19169290920160200192915050565b6020815260006128a36020830184612864565b9392505050565b6001600160a01b038116811461072f57600080fd5b6000602082840312156128d157600080fd5b81356128a3816128aa565b634e487b7160e01b600052604160045260246000fd5b600082601f83011261290357600080fd5b813567ffffffffffffffff8082111561291e5761291e6128dc565b604051601f8301601f19908116603f01168101908282118183101715612946576129466128dc565b8160405283815286602085880101111561295f57600080fd5b836020870160208301376000602085830101528094505050505092915050565b60006020828403121561299157600080fd5b813567ffffffffffffffff8111156129a857600080fd5b6129b4848285016128f2565b949350505050565b60006101608083526129d08184018f612864565b905060ff8d16602084015282810360408401526129ed818d612864565b90508281036060840152612a01818c612864565b90508281036080840152612a15818b612864565b905082810360a0840152612a29818a612864565b905082810360c0840152612a3d8189612864565b9150508560e08301528461010083015283610120830152612a6361014083018415159052565b9c9b505050505050505050505050565b6020808252825182820181905260009190848201906040850190845b81811015612aab57835183529284019291840191600101612a8f565b50909695505050505050565b60008060408385031215612aca57600080fd5b8235612ad5816128aa565b946020939093013593505050565b600060208083018184528085518083526040925060408601915060408160051b87010184880160005b83811015612b8b57603f19898403018552815160e08151855288820151818a870152612b3a82870182612864565b838a0151878b01526060808501516001600160a01b0316908801526080808501519088015260a0808501519088015260c0938401511515939096019290925250509386019390860190600101612b0c565b509098975050505050505050565b60008060408385031215612bac57600080fd5b823567ffffffffffffffff811115612bc357600080fd5b612bcf858286016128f2565b95602094909401359450505050565b803560ff81168114612bef57600080fd5b919050565b60008060008060008060008060006101208a8c031215612c1357600080fd5b893567ffffffffffffffff80821115612c2b57600080fd5b612c378d838e016128f2565b9a50612c4560208d01612bde565b995060408c0135915080821115612c5b57600080fd5b612c678d838e016128f2565b985060608c0135915080821115612c7d57600080fd5b612c898d838e016128f2565b975060808c0135915080821115612c9f57600080fd5b612cab8d838e016128f2565b965060a08c0135915080821115612cc157600080fd5b612ccd8d838e016128f2565b955060c08c0135915080821115612ce357600080fd5b50612cf08c828d016128f2565b93505060e08a013591506101008a013590509295985092959850929598565b600060208083018184528085518083526040925060408601915060408160051b87010184880160005b83811015612b8b57603f1989840301855281516101608151818652612d5f82870182612864565b91505088820151612d748a87018260ff169052565b508782015185820389870152612d8a8282612864565b91505060608083015186830382880152612da48382612864565b9250505060808083015186830382880152612dbf8382612864565b9250505060a08083015186830382880152612dda8382612864565b9250505060c08083015186830382880152612df58382612864565b60e085810151908901526101008086015190890152610120808601519089015261014094850151801515868a0152949093509150612e309050565b509588019593505090860190600101612d38565b87815260e060208201526000612e5d60e0830189612864565b6040830197909752506001600160a01b03949094166060850152608084019290925260a0830152151560c09091015292915050565b60008060408385031215612ea557600080fd5b50508035926020909101359150565b600181811c90821680612ec857607f821691505b602082108103611c9057634e487b7160e01b600052602260045260246000fd5b60008251612efa818460208701612840565b9190910192915050565b634e487b7160e01b600052601160045260246000fd5b600060018201612f2c57612f2c612f04565b5060010190565b818103818111156124a2576124a2612f04565b634e487b7160e01b600052603260045260246000fd5b80820281158282048414176124a2576124a2612f04565b600082612f9057634e487b7160e01b600052601260045260246000fd5b500490565b808201808211156124a2576124a2612f04565b606081526000808554612fba81612eb4565b8060608601526080600180841660008114612fdc5760018114612ff85761302a565b60ff1985166080890152608084151560051b890101955061302a565b8a60005260208060002060005b868110156130205781548b8201870152908401908201613005565b8a01608001975050505b505050505060208301949094525060400152919050565b600080835461304f81612eb4565b60018281168015613067576001811461307c576130ab565b60ff19841687528215158302870194506130ab565b8760005260208060002060005b858110156130a25781548a820152908401908201613089565b50505082870194505b50929695505050505050565b6000602082840312156130c957600080fd5b81516128a3816128aa565b601f821115613120576000816000526020600020601f850160051c810160208610156130fd5750805b601f850160051c820191505b8181101561311c57828155600101613109565b5050505b505050565b815167ffffffffffffffff81111561313f5761313f6128dc565b6131538161314d8454612eb4565b846130d4565b602080601f83116001811461318857600084156131705750858301515b600019600386901b1c1916600185901b17855561311c565b600085815260208120601f198616915b828110156131b757888601518255948401946001909101908401613198565b50858210156131d55787850151600019600388901b60f8161c191681555b5050505050600190811b01905550565b600085516131f7818460208a01612840565b919091019384525060609190911b6bffffffffffffffffffffffff191660208301526034820152605401919050565b634e487b7160e01b600052603160045260246000fd5b60ff851681526080602082015260006132586080830186612864565b604083019490945250606001529291505056fea2646970667358221220d5e7f3710dda3e3fa6aa94f65eac86e099b79b2caf6e2f6d605652e485fb916564736f6c6343000818003368747470733a2f2f696d616765732e756e73706c6173682e636f6d2f70686f746f2d313536303937323535302d6162613334353662353536343f773d36303026713d383068747470733a2f2f696d616765732e756e73706c6173682e636f6d2f70686f746f2d313632303333323337333939342d3363333239383330653339333f773d36303026713d383068747470733a2f2f696d616765732e756e73706c6173682e636f6d2f70686f746f2d313537383633323736373131352d3335313539376366323437373f773d36303026713d383068747470733a2f2f696d616765732e756e73706c6173682e636f6d2f70686f746f2d313631383333363735333937342d6161653865303435303661613f773d36303026713d383050656f706c65206c697665207468656972206c6976657320626f756e64206279207768617420746865792061636365707468747470733a2f2f696d616765732e756e73706c6173682e636f6d2f70686f746f2d313630373630343237363538332d6565663561306239613238313f773d36303026713d3830",
  "linkReferences": {},
  "deployedLinkReferences": {}
}