{
  "_format": "hh-sol-artifact-1",
  "contractName": "GachaSystem",
  "sourceName": "src/GachaSystem.sol",
  "abi": [
    {
      "inputs": [
        {
          "internalType": "address",
          "name": "_nftContract",
          "type": "address"
        }
      ],
      "stateMutability": "nonpayable",
      "type": "constructor"
    },
    {
      "anonymous": false,
      "inputs": [
        {
          "indexed": true,
          "internalType": "address",
          "name": "user",
          "type": "address"
        },
        {
          "indexed": true,
          "internalType": "uint256",
          "name": "tokenId",
          "type": "uint256"
        },
        {
          "indexed": false,
          "internalType": "uint8",
          "name": "tier",
          "type": "uint8"
        },
        {
          "indexed": false,
          "internalType": "uint8",
          "name": "cardIndex",
          "type": "uint8"
        },
        {
          "indexed": false,
          "internalType": "string",
          "name": "cardName",
          "type": "string"
        },
        {
          "indexed": false,
          "internalType": "uint256",
          "name": "cost",
          "type": "uint256"
        }
      ],
      "name": "CardPulled",
      "type": "event"
    },
    {
      "anonymous": false,
      "inputs": [
        {
          "indexed": true,
          "internalType": "address",
          "name": "owner",
          "type": "address"
        },
        {
          "indexed": false,
          "internalType": "uint256",
          "name": "amount",
          "type": "uint256"
        }
      ],
      "name": "FundsWithdrawn",
      "type": "event"
    },
    {
      "anonymous": false,
      "inputs": [
        {
          "indexed": true,
          "internalType": "address",
          "name": "newContract",
          "type": "address"
        }
      ],
      "name": "NFTContractUpdated",
      "type": "event"
    },
    {
      "anonymous": false,
      "inputs": [
        {
          "indexed": true,
          "internalType": "address",
          "name": "previousOwner",
          "type": "address"
        },
        {
          "indexed": true,
          "internalType": "address",
          "name": "newOwner",
          "type": "address"
        }
      ],
      "name": "OwnershipTransferred",
      "type": "event"
    },
    {
      "anonymous": false,
      "inputs": [
        {
          "indexed": false,
          "internalType": "address",
          "name": "account",
          "type": "address"
        }
      ],
      "name": "Paused",
      "type": "event"
    },
    {
      "anonymous": false,
      "inputs": [
        {
          "indexed": true,
          "internalType": "address",
          "name": "user",
          "type": "address"
        },
        {
          "indexed": false,
          "internalType": "uint8",
          "name": "originalTier",
          "type": "uint8"
        },
        {
          "indexed": false,
          "internalType": "uint8",
          "name": "originalIndex",
          "type": "uint8"
        },
        {
          "indexed": false,
          "internalType": "uint8",
          "name": "attempt",
          "type": "uint8"
        }
      ],
      "name": "ReRollTriggered",
      "type": "event"
    },
    {
      "anonymous": false,
      "inputs": [
        {
          "indexed": false,
          "internalType": "address",
          "name": "account",
          "type": "address"
        }
      ],
      "name": "Unpaused",
      "type": "event"
    },
    {
      "stateMutability": "payable",
      "type": "fallback"
    },
    {
      "inputs": [],
      "name": "MAX_REROLLS",
      "outputs": [
        {
          "internalType": "uint256",
          "name": "",
          "type": "uint256"
        }
      ],
      "stateMutability": "view",
      "type": "function"
    },
    {
      "inputs": [],
      "name": "PULL_COST",
      "outputs": [
        {
          "internalType": "uint256",
          "name": "",
          "type": "uint256"
        }
      ],
      "stateMutability": "view",
      "type": "function"
    },
    {
      "inputs": [
        {
          "internalType": "uint8",
          "name": "",
          "type": "uint8"
        },
        {
          "internalType": "uint8",
          "name": "",
          "type": "uint8"
        }
      ],
      "name": "cards",
      "outputs": [
        {
          "internalType": "uint8",
          "name": "tier",
          "type": "uint8"
        },
        {
          "internalType": "uint8",
          "name": "cardIndex",
          "type": "uint8"
        },
        {
          "internalType": "string",
          "name": "name",
          "type": "string"
        },
        {
          "internalType": "string",
          "name": "anime",
          "type": "string"
        },
        {
          "internalType": "string",
          "name": "power",
          "type": "string"
        },
        {
          "internalType": "string",
          "name": "quote",
          "type": "string"
        },
        {
          "internalType": "string",
          "name": "imageURI",
          "type": "string"
        }
      ],
      "stateMutability": "view",
      "type": "function"
    },
    {
      "inputs": [
        {
          "internalType": "uint256",
          "name": "",
          "type": "uint256"
        }
      ],
      "name": "cardsPerTier",
      "outputs": [
        {
          "internalType": "uint8",
          "name": "",
          "type": "uint8"
        }
      ],
      "stateMutability": "view",
      "type": "function"
    },
    {
      "inputs": [],
      "name": "getBalance",
      "outputs": [
        {
          "internalType": "uint256",
          "name": "",
          "type": "uint256"
        }
      ],
      "stateMutability": "view",
      "type": "function"
    },
    {
      "inputs": [
        {
          "internalType": "uint8",
          "name": "tier",
          "type": "uint8"
        },
        {
          "internalType": "uint8",
          "name": "cardIndex",
          "type": "uint8"
        }
      ],
      "name": "getCardData",
      "outputs": [
        {
          "components": [
            {
              "internalType": "uint8",
              "name": "tier",
              "type": "uint8"
            },
            {
              "internalType": "uint8",
              "name": "cardIndex",
              "type": "uint8"
            },
            {
              "internalType": "string",
              "name": "name",
              "type": "string"
            },
            {
              "internalType": "string",
              "name": "anime",
              "type": "string"
            },
            {
              "internalType": "string",
              "name": "power",
              "type": "string"
            },
            {
              "internalType": "string",
              "name": "quote",
              "type": "string"
            },
            {
              "internalType": "string",
              "name": "imageURI",
              "type": "string"
            }
          ],
          "internalType": "struct GachaSystem.CardData",
          "name": "",
          "type": "tuple"
        }
      ],
      "stateMutability": "view",
      "type": "function"
    },
    {
      "inputs": [],
      "name": "getPullOdds",
      "outputs": [
        {
          "internalType": "uint8",
          "name": "commonOdds",
          "type": "uint8"
        },
        {
          "internalType": "uint8",
          "name": "rareOdds",
          "type": "uint8"
        },
        {
          "internalType": "uint8",
          "name": "epicOdds",
          "type": "uint8"
        },
        {
          "internalType": "uint8",
          "name": "legendaryOdds",
          "type": "uint8"
        }
      ],
      "stateMutability": "view",
      "type": "function"
    },
    {
      "inputs": [
        {
          "internalType": "address",
          "name": "user",
          "type": "address"
        }
      ],
      "name": "getUserPullHistory",
      "outputs": [
        {
          "internalType": "uint256[]",
          "name": "",
          "type": "uint256[]"
        }
      ],
      "stateMutability": "view",
      "type": "function"
    },
    {
      "inputs": [
        {
          "internalType": "uint8",
          "name": "",
          "type": "uint8"
        },
        {
          "internalType": "uint8",
          "name": "",
          "type": "uint8"
        }
      ],
      "name": "mintedCards",
      "outputs": [
        {
          "internalType": "uint256",
          "name": "",
          "type": "uint256"
        }
      ],
      "stateMutability": "view",
      "type": "function"
    },
    {
      "inputs": [],
      "name": "nftContract",
      "outputs": [
        {
          "internalType": "address",
          "name": "",
          "type": "address"
        }
      ],
      "stateMutability": "view",
      "type": "function"
    },
    {
      "inputs": [],
      "name": "owner",
      "outputs": [
        {
          "internalType": "address",
          "name": "",
          "type": "address"
        }
      ],
      "stateMutability": "view",
      "type": "function"
    },
    {
      "inputs": [],
      "name": "pause",
      "outputs": [],
      "stateMutability": "nonpayable",
      "type": "function"
    },
    {
      "inputs": [],
      "name": "paused",
      "outputs": [
        {
          "internalType": "bool",
          "name": "",
          "type": "bool"
        }
      ],
      "stateMutability": "view",
      "type": "function"
    },
    {
      "inputs": [],
      "name": "pull",
      "outputs": [
        {
          "internalType": "uint256",
          "name": "",
          "type": "uint256"
        }
      ],
      "stateMutability": "payable",
      "type": "function"
    },
    {
      "inputs": [],
      "name": "renounceOwnership",
      "outputs": [],
      "stateMutability": "nonpayable",
      "type": "function"
    },
    {
      "inputs": [
        {
          "internalType": "address",
          "name": "_nftContract",
          "type": "address"
        }
      ],
      "name": "setNFTContract",
      "outputs": [],
      "stateMutability": "nonpayable",
      "type": "function"
    },
    {
      "inputs": [
        {
          "internalType": "uint8[4]",
          "name": "_weights",
          "type": "uint8[4]"
        }
      ],
      "name": "setTierWeights",
      "outputs": [],
      "stateMutability": "nonpayable",
      "type": "function"
    },
    {
      "inputs": [
        {
          "internalType": "uint256",
          "name": "",
          "type": "uint256"
        }
      ],
      "name": "tierNames",
      "outputs": [
        {
          "internalType": "string",
          "name": "",
          "type": "string"
        }
      ],
      "stateMutability": "view",
      "type": "function"
    },
    {
      "inputs": [
        {
          "internalType": "uint256",
          "name": "",
          "type": "uint256"
        }
      ],
      "name": "tierWeights",
      "outputs": [
        {
          "internalType": "uint8",
          "name": "",
          "type": "uint8"
        }
      ],
      "stateMutability": "view",
      "type": "function"
    },
    {
      "inputs": [
        {
          "internalType": "address",
          "name": "newOwner",
          "type": "address"
        }
      ],
      "name": "transferOwnership",
      "outputs": [],
      "stateMutability": "nonpayable",
      "type": "function"
    },
    {
      "inputs": [],
      "name": "unpause",
      "outputs": [],
      "stateMutability": "nonpayable",
      "type": "function"
    },
    {
      "inputs": [
        {
          "internalType": "address",
          "name": "",
          "type": "address"
        }
      ],
      "name": "userPullCount",
      "outputs": [
        {
          "internalType": "uint256",
          "name": "",
          "type": "uint256"
        }
      ],
      "stateMutability": "view",
      "type": "function"
    },
    {
      "inputs": [
        {
          "internalType": "address",
          "name": "",
          "type": "address"
        },
        {
          "internalType": "uint256",
          "name": "",
          "type": "uint256"
        }
      ],
      "name": "userPullHistory",
      "outputs": [
        {
          "internalType": "uint256",
          "name": "",
          "type": "uint256"
        }
      ],
      "stateMutability": "view",
      "type": "function"
    },
    {
      "inputs": [],
      "name": "withdraw",
      "outputs": [],
      "stateMutability": "nonpayable",
      "type": "function"
    },
    {
      "stateMutability": "payable",
      "type": "receive"
    }
  ],
  "bytecode": "0x61010060405260416080908152601460a052600a60c052600560e0526200002b906003906004620014a2565b5060408051608081018252600480825260036020830152600292820192909252600160608201526200005f919081620014a2565b5060405180608001604052806040518060400160405280600681526020016521b7b6b6b7b760d11b8152508152602001604051806040016040528060048152602001635261726560e01b8152508152602001604051806040016040528060048152602001634570696360e01b8152508152602001604051806040016040528060098152602001684c6567656e6461727960b81b81525081525060059060046200010a9291906200153c565b503480156200011857600080fd5b5060405162003bc338038062003bc38339810160408190526200013b9162001602565b60016000556200014b3362000184565b6001805460ff60a01b19169055600280546001600160a01b0319166001600160a01b0383161790556200017d620001d6565b50620017a6565b600180546001600160a01b038381166001600160a01b0319831681179093556040519116919082907f8be0079c531659141344cd1fd0a4f28419497f9722a3daafe3b4186f6b6457e090600090a35050565b6040518060e00160405280600060ff168152602001600060ff168152602001604051806040016040528060068152602001654b696c6c756160d01b81525081526020016040518060400160405280600f81526020016e243ab73a32b9103c10243ab73a32b960891b81525081526020016040518060400160405280600881526020016711dbd91cdc19595960c21b81525081526020016040518060400160405280601881526020017f492077616e7420746f20626520796f757220667269656e640000000000000000815250815260200160405180608001604052806047815260200162003a9d60479139905260008052600080516020620039d2833981519152602090815281517f1db9b60e29d1c7b8f6dd3b0694bb575b31a91ff0c8356ff34f7102e1867b3c1f80549284015160ff9081166101000261ffff1990941692169190911791909117815560408201517f1db9b60e29d1c7b8f6dd3b0694bb575b31a91ff0c8356ff34f7102e1867b3c2090620003549082620016da565b50606082015160028201906200036b9082620016da565b5060808201516003820190620003829082620016da565b5060a08201516004820190620003999082620016da565b5060c08201516005820190620003b09082620016da565b509050506040518060e00160405280600060ff168152602001600160ff168152602001604051806040016040528060078152602001665a656e6974737560c81b81525081526020016040518060400160405280600c81526020016b2232b6b7b71029b630bcb2b960a11b8152508152602001604051806040016040528060118152602001705468756e64657220427265617468696e6760781b81525081526020016040518060400160405280600f81526020016e49206d75737420626520627261766560881b815250815260200160405180608001604052806047815260200162003b5c6047913990526001600052600080516020620039d2833981519152602090815281517f23fa57a40713449fd1aa9d0cca3e8d84e3a9eb72f1cadc9b68d5cfcf98b3e2d680549284015160ff9081166101000261ffff1990941692169190911791909117815560408201517f23fa57a40713449fd1aa9d0cca3e8d84e3a9eb72f1cadc9b68d5cfcf98b3e2d7906200052c9082620016da565b5060608201516002820190620005439082620016da565b50608082015160038201906200055a9082620016da565b5060a08201516004820190620005719082620016da565b5060c08201516005820190620005889082620016da565b509050506040518060e00160405280600060ff168152602001600260ff1681526020016040518060400160405280600681526020016542616b75676f60d01b81525081526020016040518060400160405280601081526020016f4d79204865726f2041636164656d696160801b81525081526020016040518060400160405280600981526020016822bc383637b9b4b7b760b91b81525081526020016040518060400160405280601881526020017f492077696c6c207375727061737320416c6c204d696768740000000000000000815250815260200160405180608001604052806047815260200162003a566047913990526002600052600080516020620039d2833981519152602090815281517f84b3951227fd5ab5dc0c8d6ed4d64e623f2b7a51e418ee58d44b70cfb8e6a29580549284015160ff9081166101000261ffff1990941692169190911791909117815560408201517f84b3951227fd5ab5dc0c8d6ed4d64e623f2b7a51e418ee58d44b70cfb8e6a296906200070d9082620016da565b5060608201516002820190620007249082620016da565b50608082015160038201906200073b9082620016da565b5060a08201516004820190620007529082620016da565b5060c08201516005820190620007699082620016da565b509050506040518060e00160405280600060ff168152602001600360ff168152602001604051806040016040528060068152602001654e6f6261726160d01b81525081526020016040518060400160405280600e81526020016d253ab53aba39ba9025b0b4b9b2b760911b81525081526020016040518060400160405280601481526020017f537472617720446f6c6c20546563686e6971756500000000000000000000000081525081526020016040518060400160405280601b81526020017f4920616d206865726520746f207361766520796f7572206c6966650000000000815250815260200160405180608001604052806047815260200162003ae46047913990526003600052600080516020620039d2833981519152602090815281517f50aa7fea67ec5a67807c2a763e22a3ad42e3407d410062e698305f5043f21a7e80549284015160ff9081166101000261ffff1990941692169190911791909117815560408201517f50aa7fea67ec5a67807c2a763e22a3ad42e3407d410062e698305f5043f21a7f90620009009082620016da565b5060608201516002820190620009179082620016da565b50608082015160038201906200092e9082620016da565b5060a08201516004820190620009459082620016da565b5060c082015160058201906200095c9082620016da565b509050506040518060e00160405280600160ff168152602001600060ff1681526020016040518060400160405280600481526020016344656b7560e01b81525081526020016040518060400160405280601081526020016f4d79204865726f2041636164656d696160801b81525081526020016040518060400160405280600b81526020016a13db9948119bdc88105b1b60aa1b81525081526020016040518060400160405280601481526020017f492077696c6c20736176652065766572796f6e65000000000000000000000000815250815260200160405180608001604052806047815260200162003a9d6047913990526000805260008051602062003ba3833981519152602090815281517fb878081ec3704a5de178258b7387a20f00443d893bc5640352b547081b2d5c1680549284015160ff9081166101000261ffff1990941692169190911791909117815560408201517fb878081ec3704a5de178258b7387a20f00443d893bc5640352b547081b2d5c179062000ae09082620016da565b506060820151600282019062000af79082620016da565b506080820151600382019062000b0e9082620016da565b5060a0820151600482019062000b259082620016da565b5060c0820151600582019062000b3c9082620016da565b509050506040518060e00160405280600160ff168152602001600160ff1681526020016040518060400160405280600681526020016549746163686960d01b8152508152602001604051806040016040528060068152602001654e617275746f60d01b81525081526020016040518060400160405280601281526020017126b0b733b2b5bcb79029b430b934b733b0b760711b815250815260200160405180606001604052806031815260200162003b2b60319139815260200160405180608001604052806047815260200162003ae4604791399052600160005260008051602062003ba3833981519152602090815281517fcc827bfc2dbd52cbec5736232342c6a272d0cf5ce2695a969eb442c9480de86d80549284015160ff9081166101000261ffff1990941692169190911791909117815560408201517fcc827bfc2dbd52cbec5736232342c6a272d0cf5ce2695a969eb442c9480de86e9062000ca49082620016da565b506060820151600282019062000cbb9082620016da565b506080820151600382019062000cd29082620016da565b5060a0820151600482019062000ce99082620016da565b5060c0820151600582019062000d009082620016da565b509050506040518060e00160405280600160ff168152602001600260ff1681526020016040518060400160405280600781526020016654616e6a69726f60c81b81525081526020016040518060400160405280600c81526020016b2232b6b7b71029b630bcb2b960a11b81525081526020016040518060400160405280600d81526020016c53756e20427265617468696e6760981b81525081526020016040518060400160405280601581526020017f492077696c6c2073617665206d79207369737465720000000000000000000000815250815260200160405180608001604052806044815260200162003a12604491399052600260005260008051602062003ba3833981519152602090815281517f14dc87e93c3e9d572d1869cd6932ff814373e10add1350cae5ca0f5cb0a35ce280549284015160ff9081166101000261ffff1990941692169190911791909117815560408201517f14dc87e93c3e9d572d1869cd6932ff814373e10add1350cae5ca0f5cb0a35ce39062000e869082620016da565b506060820151600282019062000e9d9082620016da565b506080820151600382019062000eb49082620016da565b5060a0820151600482019062000ecb9082620016da565b5060c0820151600582019062000ee29082620016da565b509050506040518060e00160405280600260ff168152602001600060ff168152602001604051806040016040528060048152602001634c65766960e01b81525081526020016040518060400160405280600f81526020016e20ba3a30b1b59037b7102a34ba30b760891b81525081526020016040518060400160405280601281526020017141636b65726d616e20426c6f6f646c696e6560701b81525081526020016040518060400160405280601e81526020017f47697665207570206f6e20796f757220647265616d7320616e64206469650000815250815260200160405180608001604052806047815260200162003a5660479139905260008052600080516020620039f2833981519152602090815281517f3b42cd99af8cdc976e9785d5d4342a4692e3018f28257f8f46412039f3a6c62480549284015160ff9081166101000261ffff1990941692169190911791909117815560408201517f3b42cd99af8cdc976e9785d5d4342a4692e3018f28257f8f46412039f3a6c625906200106c9082620016da565b5060608201516002820190620010839082620016da565b50608082015160038201906200109a9082620016da565b5060a08201516004820190620010b19082620016da565b5060c08201516005820190620010c89082620016da565b509050506040518060e00160405280600260ff168152602001600160ff16815260200160405180604001604052806004815260200163476f6a6f60e01b81525081526020016040518060400160405280600e81526020016d253ab53aba39ba9025b0b4b9b2b760911b81525081526020016040518060400160405280601481526020017f4c696d69746c65737320262053697820457965730000000000000000000000008152508152602001604051806040016040528060128152602001711248185b481d1a19481cdd1c9bdb99d95cdd60721b815250815260200160405180608001604052806047815260200162003ae46047913990526001600052600080516020620039f2833981519152602090815281517fb1538681c2db9bd48f95ce57ff883ef9057f42d49cd7afa17116b9849096386680549284015160ff9081166101000261ffff1990941692169190911791909117815560408201517fb1538681c2db9bd48f95ce57ff883ef9057f42d49cd7afa17116b9849096386790620012529082620016da565b5060608201516002820190620012699082620016da565b5060808201516003820190620012809082620016da565b5060a08201516004820190620012979082620016da565b5060c08201516005820190620012ae9082620016da565b509050506040518060e00160405280600360ff168152602001600060ff16815260200160405180604001604052806004815260200163476f6b7560e01b81525081526020016040518060400160405280600b81526020016a111c9859dbdb8810985b1b60aa1b81525081526020016040518060400160405280600e81526020016d155b1d1c9848125b9cdd1a5b98dd60921b81525081526020016040518060400160405280601d81526020017f4920616d2074686520686f7065206f662074686520756e697665727365000000815250815260200160405180608001604052806047815260200162003ae4604791399052600080527fc575c31fea594a6eb97c8e9d3f9caee4c16218c6ef37e923234c0fe9014a61e7602090815281517f6b58a2affda0aa73304eb649b73bf36dfc4fda3589c22bc681970ecdec7c6c9580549284015160ff9081166101000261ffff1990941692169190911791909117815560408201517f6b58a2affda0aa73304eb649b73bf36dfc4fda3589c22bc681970ecdec7c6c9690620014419082620016da565b5060608201516002820190620014589082620016da565b50608082015160038201906200146f9082620016da565b5060a08201516004820190620014869082620016da565b5060c082015160058201906200149d9082620016da565b505050565b6001830191839082156200152a5791602002820160005b83821115620014f957835183826101000a81548160ff021916908360ff1602179055509260200192600101602081600001049283019260010302620014b9565b8015620015285782816101000a81549060ff0219169055600101602081600001049283019260010302620014f9565b505b506200153892915062001588565b5090565b82600481019282156200157a579160200282015b828111156200157a5782518290620015699082620016da565b509160200191906001019062001550565b50620015389291506200159f565b5b8082111562001538576000815560010162001589565b8082111562001538576000620015b68282620015c0565b506001016200159f565b508054620015ce906200164a565b6000825580601f10620015df575050565b601f016020900490600052602060002090810190620015ff919062001588565b50565b6000602082840312156200161557600080fd5b81516001600160a01b03811681146200162d57600080fd5b9392505050565b634e487b7160e01b600052604160045260246000fd5b600181811c908216806200165f57607f821691505b6020821081036200168057634e487b7160e01b600052602260045260246000fd5b50919050565b601f8211156200149d576000816000526020600020601f850160051c81016020861015620016b15750805b601f850160051c820191505b81811015620016d257828155600101620016bd565b505050505050565b81516001600160401b03811115620016f657620016f662001634565b6200170e816200170784546200164a565b8462001686565b602080601f8311600181146200174657600084156200172d5750858301515b600019600386901b1c1916600185901b178555620016d2565b600085815260208120601f198616915b82811015620017775788860151825594840194600190910190840162001756565b5085821015620017965787850151600019600388901b60f8161c191681555b5050505050600190811b01905550565b61221c80620017b66000396000f3fe6080604052600436106101435760003560e01c8063715018a6116100b0578063cb74cf0c1161006c578063cb74cf0c146103a8578063d56d229d146103e0578063da0f56ca14610400578063f2fde38b14610420578063f36596da14610440578063fc818c381461046d57005b8063715018a6146102e257806375d33269146102f757806377865b86146103145780638456cb59146103415780638da5cb5b14610356578063a7ccabdf1461038857005b8063335aa447116100ff578063335aa447146102215780633ccfd60b146102415780633d30ded5146102565780633f4ba83a146102765780635c975abb1461028b5780635e7468f7146102b557005b806308d49f821461014c5780630dd2ef381461017457806312065fe0146101a1578063223da8f4146101b45780632d8ce6f7146101e7578063329eb8391461021957005b3661014a57005b005b34801561015857600080fd5b50610161600381565b6040519081526020015b60405180910390f35b34801561018057600080fd5b5061019461018f366004611c3c565b6104b9565b60405161016b9190611c57565b3480156101ad57600080fd5b5047610161565b3480156101c057600080fd5b506101d46101cf366004611cac565b610525565b60405161016b9796959493929190611d2f565b3480156101f357600080fd5b50610207610202366004611db0565b61081a565b60405160ff909116815260200161016b565b610161610844565b34801561022d57600080fd5b5061020761023c366004611db0565b610b3c565b34801561024d57600080fd5b5061014a610b4c565b34801561026257600080fd5b5061014a610271366004611dc9565b610c91565b34801561028257600080fd5b5061014a610d3c565b34801561029757600080fd5b50600154600160a01b900460ff16604051901515815260200161016b565b3480156102c157600080fd5b506102d56102d0366004611cac565b610d4e565b60405161016b9190611e5c565b3480156102ee57600080fd5b5061014a611135565b34801561030357600080fd5b506101616802b5e3af16b188000081565b34801561032057600080fd5b5061016161032f366004611c3c565b600b6020526000908152604090205481565b34801561034d57600080fd5b5061014a611147565b34801561036257600080fd5b506001546001600160a01b03165b6040516001600160a01b03909116815260200161016b565b34801561039457600080fd5b5061014a6103a3366004611c3c565b611157565b3480156103b457600080fd5b506101616103c3366004611cac565b600a60209081526000928352604080842090915290825290205481565b3480156103ec57600080fd5b50600254610370906001600160a01b031681565b34801561040c57600080fd5b5061016161041b366004611f1a565b6111f1565b34801561042c57600080fd5b5061014a61043b366004611c3c565b611222565b34801561044c57600080fd5b5061046061045b366004611db0565b61129b565b60405161016b9190611f44565b34801561047957600080fd5b506003546040805160ff8084168252610100840481166020830152620100008404811692820192909252630100000090920416606082015260800161016b565b6001600160a01b0381166000908152600c602090815260409182902080548351818402810184019094528084526060939283018282801561051957602002820191906000526020600020905b815481526020019060010190808311610505575b50505050509050919050565b60096020908152600092835260408084209091529082529020805460018201805460ff808416946101009094041692919061055f90611f57565b80601f016020809104026020016040519081016040528092919081815260200182805461058b90611f57565b80156105d85780601f106105ad576101008083540402835291602001916105d8565b820191906000526020600020905b8154815290600101906020018083116105bb57829003601f168201915b5050505050908060020180546105ed90611f57565b80601f016020809104026020016040519081016040528092919081815260200182805461061990611f57565b80156106665780601f1061063b57610100808354040283529160200191610666565b820191906000526020600020905b81548152906001019060200180831161064957829003601f168201915b50505050509080600301805461067b90611f57565b80601f01602080910402602001604051908101604052809291908181526020018280546106a790611f57565b80156106f45780601f106106c9576101008083540402835291602001916106f4565b820191906000526020600020905b8154815290600101906020018083116106d757829003601f168201915b50505050509080600401805461070990611f57565b80601f016020809104026020016040519081016040528092919081815260200182805461073590611f57565b80156107825780601f1061075757610100808354040283529160200191610782565b820191906000526020600020905b81548152906001019060200180831161076557829003601f168201915b50505050509080600501805461079790611f57565b80601f01602080910402602001604051908101604052809291908181526020018280546107c390611f57565b80156108105780601f106107e557610100808354040283529160200191610810565b820191906000526020600020905b8154815290600101906020018083116107f357829003601f168201915b5050505050905087565b6003816004811061082a57600080fd5b60209182820401919006915054906101000a900460ff1681565b600061084e61133b565b610856611394565b6802b5e3af16b18800003410156108c45760405162461bcd60e51b815260206004820152602760248201527f496e73756666696369656e74207061796d656e743a203530204d415449432072604482015266195c5d5a5c995960ca1b60648201526084015b60405180910390fd5b60006108ce6113e1565b90506000806108dc83611457565b9150915060005b6108ee33848461154a565b80156108fa5750600381105b1561099257337f26286be7d6ee2379c2bbffc7586982198e78db83d707acc447eb5fb5bc9ee38e848461092e856001611fa7565b6040805160ff9485168152928416602084015292168183015290519081900360600190a28061095b6113e1565b6109659190611fa7565b610970906001611fa7565b935061097b84611457565b90935091508061098a81611fba565b9150506108e3565b600061099f3385856115b0565b336000908152600b602052604081208054929350906109bd83611fba565b9091555050336000908152600c6020908152604080832080546001810182559084528284200184905560ff8088168452600a835281842090871684529091528120805491610a0a83611fba565b909155505060ff808516600090815260096020908152604080832093871683529290528190209051829133917f39c7ff60ef6fe9ef1ad27d2de173721a3ba1b7104a3cf2e3f0af81316228c6e291610a7691899189916001909101906802b5e3af16b188000090611fd3565b60405180910390a36802b5e3af16b1880000341115610b2957600033610aa56802b5e3af16b188000034612080565b604051600081818185875af1925050503d8060008114610ae1576040519150601f19603f3d011682016040523d82523d6000602084013e610ae6565b606091505b5050905080610b275760405162461bcd60e51b815260206004820152600d60248201526c1499599d5b990819985a5b1959609a1b60448201526064016108bb565b505b945050505050610b396001600055565b90565b6004816004811061082a57600080fd5b610b54611946565b4780610b995760405162461bcd60e51b81526020600482015260146024820152734e6f2066756e647320746f20776974686472617760601b60448201526064016108bb565b6000610bad6001546001600160a01b031690565b6001600160a01b03168260405160006040518083038185875af1925050503d8060008114610bf7576040519150601f19603f3d011682016040523d82523d6000602084013e610bfc565b606091505b5050905080610c3f5760405162461bcd60e51b815260206004820152600f60248201526e151c985b9cd9995c8819985a5b1959608a1b60448201526064016108bb565b6001546001600160a01b03166001600160a01b03167feaff4b37086828766ad3268786972c0cd24259d4c87a80f9d3963a3c3d999b0d83604051610c8591815260200190565b60405180910390a25050565b610c99611946565b606081015160408201516020830151835160009360ff90811693811692610cc4929082169116611fa7565b610cce9190611fa7565b610cd89190611fa7565b905080606414610d2a5760405162461bcd60e51b815260206004820152601760248201527f57656967687473206d7573742073756d20746f2031303000000000000000000060448201526064016108bb565b610d376003836004611b78565b505050565b610d44611946565b610d4c6119a0565b565b610d946040518060e00160405280600060ff168152602001600060ff16815260200160608152602001606081526020016060815260200160608152602001606081525090565b60048360ff16108015610dd4575060048360ff1660048110610db857610db8612093565b602081049091015460ff601f9092166101000a90048116908316105b610e0f5760405162461bcd60e51b815260206004820152600c60248201526b125b9d985b1a590818d85c9960a21b60448201526064016108bb565b60ff80841660009081526009602090815260408083208685168452825291829020825160e081018452815480861682526101009004909416918401919091526001810180549192840191610e6290611f57565b80601f0160208091040260200160405190810160405280929190818152602001828054610e8e90611f57565b8015610edb5780601f10610eb057610100808354040283529160200191610edb565b820191906000526020600020905b815481529060010190602001808311610ebe57829003601f168201915b50505050508152602001600282018054610ef490611f57565b80601f0160208091040260200160405190810160405280929190818152602001828054610f2090611f57565b8015610f6d5780601f10610f4257610100808354040283529160200191610f6d565b820191906000526020600020905b815481529060010190602001808311610f5057829003601f168201915b50505050508152602001600382018054610f8690611f57565b80601f0160208091040260200160405190810160405280929190818152602001828054610fb290611f57565b8015610fff5780601f10610fd457610100808354040283529160200191610fff565b820191906000526020600020905b815481529060010190602001808311610fe257829003601f168201915b5050505050815260200160048201805461101890611f57565b80601f016020809104026020016040519081016040528092919081815260200182805461104490611f57565b80156110915780601f1061106657610100808354040283529160200191611091565b820191906000526020600020905b81548152906001019060200180831161107457829003601f168201915b505050505081526020016005820180546110aa90611f57565b80601f01602080910402602001604051908101604052809291908181526020018280546110d690611f57565b80156111235780601f106110f857610100808354040283529160200191611123565b820191906000526020600020905b81548152906001019060200180831161110657829003601f168201915b50505050508152505090505b92915050565b61113d611946565b610d4c60006119f5565b61114f611946565b610d4c611a47565b61115f611946565b6001600160a01b0381166111a75760405162461bcd60e51b815260206004820152600f60248201526e496e76616c6964206164647265737360881b60448201526064016108bb565b600280546001600160a01b0319166001600160a01b0383169081179091556040517ff2610996d245d9b77e4ff84c2174eea0b76fb44c422218404f66e28816d78fb990600090a250565b600c602052816000526040600020818154811061120d57600080fd5b90600052602060002001600091509150505481565b61122a611946565b6001600160a01b03811661128f5760405162461bcd60e51b815260206004820152602660248201527f4f776e61626c653a206e6577206f776e657220697320746865207a65726f206160448201526564647265737360d01b60648201526084016108bb565b611298816119f5565b50565b600581600481106112ab57600080fd5b0180549091506112ba90611f57565b80601f01602080910402602001604051908101604052809291908181526020018280546112e690611f57565b80156113335780601f1061130857610100808354040283529160200191611333565b820191906000526020600020905b81548152906001019060200180831161131657829003601f168201915b505050505081565b60026000540361138d5760405162461bcd60e51b815260206004820152601f60248201527f5265656e7472616e637947756172643a207265656e7472616e742063616c6c0060448201526064016108bb565b6002600055565b600154600160a01b900460ff1615610d4c5760405162461bcd60e51b815260206004820152601060248201526f14185d5cd8589b194e881c185d5cd95960821b60448201526064016108bb565b336000818152600b602090815260408083205490519293611439934293449391439101948552602085019390935260609190911b6bffffffffffffffffffffffff191660408401526054830152607482015260940190565b6040516020818303038152906040528051906020012060001c905090565b600080806114666064856120bf565b6003549091506301000000900460ff168110156114865760039250611501565b6003546114a59060ff62010000820481169163010000009004166120d3565b60ff168110156114b85760029250611501565b60035460ff61010082048116916114df9162010000820481169163010000009004166120d3565b6114e991906120d3565b60ff168110156114fc5760019250611501565b600092505b60048360ff166004811061151757611517612093565b602081049091015460ff601f9092166101000a9004166115386064866120ec565b61154291906120bf565b915050915091565b6040805160008082526020820190925260005b81518110156115a25761158a82828151811061157b5761157b612093565b60200260200101518686611a8a565b1561159a576001925050506115a9565b60010161155d565b5060009150505b9392505050565b60ff808316600090815260096020908152604080832085851684528252808320815160e08101835281548087168252610100900490951692850192909252600182018054939485949093928401919061160890611f57565b80601f016020809104026020016040519081016040528092919081815260200182805461163490611f57565b80156116815780601f1061165657610100808354040283529160200191611681565b820191906000526020600020905b81548152906001019060200180831161166457829003601f168201915b5050505050815260200160028201805461169a90611f57565b80601f01602080910402602001604051908101604052809291908181526020018280546116c690611f57565b80156117135780601f106116e857610100808354040283529160200191611713565b820191906000526020600020905b8154815290600101906020018083116116f657829003601f168201915b5050505050815260200160038201805461172c90611f57565b80601f016020809104026020016040519081016040528092919081815260200182805461175890611f57565b80156117a55780601f1061177a576101008083540402835291602001916117a5565b820191906000526020600020905b81548152906001019060200180831161178857829003601f168201915b505050505081526020016004820180546117be90611f57565b80601f01602080910402602001604051908101604052809291908181526020018280546117ea90611f57565b80156118375780601f1061180c57610100808354040283529160200191611837565b820191906000526020600020905b81548152906001019060200180831161181a57829003601f168201915b5050505050815260200160058201805461185090611f57565b80601f016020809104026020016040519081016040528092919081815260200182805461187c90611f57565b80156118c95780601f1061189e576101008083540402835291602001916118c9565b820191906000526020600020905b8154815290600101906020018083116118ac57829003601f168201915b505050505081525050905060006118df82611adf565b905060006118f160ff86166064612100565b61190060ff88166103e8612100565b61190a9190611fa7565b60ff8088166000908152600a60209081526040808320938a168352929052908120549192509061193a9083611fa7565b98975050505050505050565b6001546001600160a01b03163314610d4c5760405162461bcd60e51b815260206004820181905260248201527f4f776e61626c653a2063616c6c6572206973206e6f7420746865206f776e657260448201526064016108bb565b6119a8611b28565b6001805460ff60a01b191690557f5db9ee0a495bf2e6ff9c91a7834c1ba4fdd244a5e8aa4e537bd38aeae4b073aa335b6040516001600160a01b03909116815260200160405180910390a1565b600180546001600160a01b038381166001600160a01b0319831681179093556040519116919082907f8be0079c531659141344cd1fd0a4f28419497f9722a3daafe3b4186f6b6457e090600090a35050565b611a4f611394565b6001805460ff60a01b1916600160a01b1790557f62e78cea01bee320cd4e420270b5ea74000d11b0c9f74754ebdbfc544b05a2586119d83390565b600080611a9b60ff84166064612100565b611aaa60ff86166103e8612100565b611ab49190611fa7565b90506000611ac3826063611fa7565b9050818610158015611ad55750808611155b9695505050505050565b60606005826000015160ff1660048110611afb57611afb612093565b018260400151604051602001611b12929190612133565b6040516020818303038152906040529050919050565b600154600160a01b900460ff16610d4c5760405162461bcd60e51b815260206004820152601460248201527314185d5cd8589b194e881b9bdd081c185d5cd95960621b60448201526064016108bb565b600183019183908215611bfb5791602002820160005b83821115611bcc57835183826101000a81548160ff021916908360ff1602179055509260200192600101602081600001049283019260010302611b8e565b8015611bf95782816101000a81549060ff0219169055600101602081600001049283019260010302611bcc565b505b50611c07929150611c0b565b5090565b5b80821115611c075760008155600101611c0c565b80356001600160a01b0381168114611c3757600080fd5b919050565b600060208284031215611c4e57600080fd5b6115a982611c20565b6020808252825182820181905260009190848201906040850190845b81811015611c8f57835183529284019291840191600101611c73565b50909695505050505050565b803560ff81168114611c3757600080fd5b60008060408385031215611cbf57600080fd5b611cc883611c9b565b9150611cd660208401611c9b565b90509250929050565b60005b83811015611cfa578181015183820152602001611ce2565b50506000910152565b60008151808452611d1b816020860160208601611cdf565b601f01601f19169290920160200192915050565b60ff8816815260ff8716602082015260e060408201526000611d5460e0830188611d03565b8281036060840152611d668188611d03565b90508281036080840152611d7a8187611d03565b905082810360a0840152611d8e8186611d03565b905082810360c0840152611da28185611d03565b9a9950505050505050505050565b600060208284031215611dc257600080fd5b5035919050565b600060808284031215611ddb57600080fd5b82601f830112611dea57600080fd5b6040516080810181811067ffffffffffffffff82111715611e1b57634e487b7160e01b600052604160045260246000fd5b604052806080840185811115611e3057600080fd5b845b81811015611e5157611e4381611c9b565b835260209283019201611e32565b509195945050505050565b6020815260ff825116602082015260006020830151611e80604084018260ff169052565b50604083015160e06060840152611e9b610100840182611d03565b90506060840151601f1980858403016080860152611eb98383611d03565b925060808601519150808584030160a0860152611ed68383611d03565b925060a08601519150808584030160c0860152611ef38383611d03565b925060c08601519150808584030160e086015250611f118282611d03565b95945050505050565b60008060408385031215611f2d57600080fd5b611f3683611c20565b946020939093013593505050565b6020815260006115a96020830184611d03565b600181811c90821680611f6b57607f821691505b602082108103611f8b57634e487b7160e01b600052602260045260246000fd5b50919050565b634e487b7160e01b600052601160045260246000fd5b8082018082111561112f5761112f611f91565b600060018201611fcc57611fcc611f91565b5060010190565b60ff851681526000602060ff861660208401526080604084015260008554611ffa81611f57565b80608087015260a060018084166000811461201c576001811461203857612068565b60ff19851660a08a015260a084151560051b8a01019550612068565b8a600052602060002060005b8581101561205f5781548b8201860152908301908801612044565b8a0160a0019650505b50505050506060939093019390935250949350505050565b8181038181111561112f5761112f611f91565b634e487b7160e01b600052603260045260246000fd5b634e487b7160e01b600052601260045260246000fd5b6000826120ce576120ce6120a9565b500690565b60ff818116838216019081111561112f5761112f611f91565b6000826120fb576120fb6120a9565b500490565b808202811582820484141761112f5761112f611f91565b60008151612129818560208601611cdf565b9290920192915050565b7f68747470733a2f2f6170692e686e7472732e696f2f6d657461646174612f000081526000601e6000855461216781611f57565b6001828116801561217f576001811461219a576121ce565b60ff198416601e890152601e831515840289010194506121ce565b8960005260208060002060005b858110156121c25781548b82018a01529084019082016121a7565b505050601e8389010194505b50505050602f60f81b8152611ad5600182018661211756fea2646970667358221220d053d24e5f7c635752092ce6a94ff0dc52594886354cfb2810da379861b3eef764736f6c63430008180033ec8156718a8372b1db44bb411437d0870f3e3790d4a08526d024ce1b0b668f6b6cde3cea4b3a3fb2488b2808bae7556f4a405e50f65e1794383bc026131b13c368747470733a2f2f696d616765732e756e73706c6173682e636f6d2f70686f746f2d313536303937323535302d6162613334353662353536343f773d36303026713d383068747470733a2f2f696d616765732e756e73706c6173682e636f6d2f70686f746f2d313632303333323337333939342d3363333239383330653339333f773d36303026713d383068747470733a2f2f696d616765732e756e73706c6173682e636f6d2f70686f746f2d313537383633323736373131352d3335313539376366323437373f773d36303026713d383068747470733a2f2f696d616765732e756e73706c6173682e636f6d2f70686f746f2d313631383333363735333937342d6161653865303435303661613f773d36303026713d383050656f706c65206c697665207468656972206c6976657320626f756e64206279207768617420746865792061636365707468747470733a2f2f696d616765732e756e73706c6173682e636f6d2f70686f746f2d313630373630343237363538332d6565663561306239613238313f773d36303026713d383092e85d02570a8092d09a6e3a57665bc3815a2699a4074001bf1ccabf660f5a36",
  "linkReferences": {},
  "deployedLinkReferences": {}
}